:040000000C94003A22
:1074000000D000D0CDB7DEB711248FEF98E09EBF3B
:107410008DBF84B714BE982F9D7009F0A6D180E867
:107420008093F20093E99093F2008093610091E0E1
:107430009093610086BF80E486BF85E080938100E1
:1074400088E18093C10086E08093C20080E1809350
:10745000C4008CE075D1259A86E040E35CEF31E012
:1074600020E2509385004093840036BBB09BFECF52
:1074700095B1922795B9A895815099F780E09AE344
:107480009A831C821B82C12CD12C7601412C512C59
:107490003201439444D1813479F441D1182F56D12B
:1074A000123811F480E004C085E0113809F083E05F
:1074B0002FD180E12DD1EECF823419F484E14ED169
:1074C000F8CF853411F485E0FACF853579F427D1EA
:1074D000282F30E03C832B8322D14B815C81582BB9
:1074E000440F551F5C834B8331D1E3CF863519F4AC
:1074F00084E034D1D7CF843609F0A1C010D1082F51
:1075000010E0102F00270BD14801880E911C07D1E5
:10751000898384011395212C3324339451015FEF27
:10752000A51AB50AFCD0F10180831501A016B10699
:10753000A9F711BC2B813C81832F992782BD82B58D
:1075400086958695B701A601082E04C076956795A5
:10755000579547950A94D2F740FD18C039813634C3
:10756000A9F4A301920104C0220F331F441F551F29
:107570008A95D2F7DA01C901C22AD92AE42AFB2A5C
:1075800034E93FBB42E94FBB00000000DFD0598126
:10759000553401F52B813C8190E080E011C02F5FD4
:1075A0003F4F4B81480F41BD432F552742BDFC0142
:1075B000F395408140BDE4E0EFBBF2E0FFBB0196F4
:1075C0008815990561F72B813C81280F391F3C8371
:1075D0002B836FCF4B815C81452BD9F490910201B5
:1075E00090930402809103018093050220911A0177
:1075F0002093060220911B012093070290931A0109
:1076000080931B0180E09AE3809302019A8190931A
:107610000301E0E0F1E011BC808180BD21E021BDEB
:10762000818180BD8B818E0F81BD34EA3FBB42EAF0
:107630004FBB3296E03851E0F50769F73ACF84370F
:1076400009F057C06CD0082F10E0102F002767D02A
:10765000080F111D64D0B82E79D08B819C81080F42
:10766000191F95E4B91217C0EB81FC813196FC8398
:10767000EB838E2F815081BD8F2F992782BDF1E042
:10768000FFBB0000000080B543D02B813C81201758
:10769000310751F70ECF4B815C814230510579F4AF
:1076A000809104022B813C812F5F3F4F3C832B83D1
:1076B0002FD04B815C814017510769F7FACE8B813F
:1076C0009C81039719F480910502ECCFEB81FC813A
:1076D0007A9719F480910602E5CF2B813C812B31FA
:1076E000310519F480910702DDCFEB81FC81849193
:1076F000D9CF853739F42AD08EE10AD085E908D070
:107700008FE0D6CE813509F0EFCE8CE019D0ECCEEB
:107710009091C00095FFFCCF8093C60008958091A2
:10772000C00087FFFCCF8091C00084FD01C0A895F8
:107730008091C60008959AE29A95F1F70895089508
:10774000E0E6F0E098E1908380830895E8DF8032FE
:1077500019F08CE0F5DFFFCF84E1DACFCF93C82FAB
:10776000DEDFC150E9F7CF91F1CF282E80E0E8DFCE
:06777000ECE0FF27099484
:0277FE00000584
:040000030000740085
:00000001FF
